{
  "contractName": "MultiSigWallet",
  "abi": [
    {
      "inputs": [
        {
          "internalType": "address[]",
          "name": "_owners",
          "type": "address[]"
        },
        {
          "internalType": "uint256",
          "name": "_numConfirmationsRequired",
          "type": "uint256"
        }
      ],
      "payable": false,
      "stateMutability": "nonpayable",
      "type": "constructor"
    },
    {
      "anonymous": false,
      "inputs": [
        {
          "indexed": true,
          "internalType": "address",
          "name": "owner",
          "type": "address"
        },
        {
          "indexed": true,
          "internalType": "uint256",
          "name": "txIndex",
          "type": "uint256"
        }
      ],
      "name": "Confirm",
      "type": "event"
    },
    {
      "anonymous": false,
      "inputs": [
        {
          "indexed": true,
          "internalType": "address",
          "name": "to",
          "type": "address"
        },
        {
          "indexed": false,
          "internalType": "uint256",
          "name": "amount",
          "type": "uint256"
        },
        {
          "indexed": false,
          "internalType": "uint256",
          "name": "balance",
          "type": "uint256"
        }
      ],
      "name": "Deposit",
      "type": "event"
    },
    {
      "anonymous": false,
      "inputs": [
        {
          "indexed": true,
          "internalType": "address",
          "name": "owner",
          "type": "address"
        },
        {
          "indexed": true,
          "internalType": "uint256",
          "name": "txIndex",
          "type": "uint256"
        }
      ],
      "name": "Execute",
      "type": "event"
    },
    {
      "anonymous": false,
      "inputs": [
        {
          "indexed": true,
          "internalType": "address",
          "name": "owner",
          "type": "address"
        },
        {
          "indexed": true,
          "internalType": "uint256",
          "name": "txIndex",
          "type": "uint256"
        }
      ],
      "name": "Revoke",
      "type": "event"
    },
    {
      "anonymous": false,
      "inputs": [
        {
          "indexed": true,
          "internalType": "address",
          "name": "owner",
          "type": "address"
        },
        {
          "indexed": true,
          "internalType": "uint256",
          "name": "txIndex",
          "type": "uint256"
        },
        {
          "indexed": true,
          "internalType": "address",
          "name": "to",
          "type": "address"
        },
        {
          "indexed": false,
          "internalType": "uint256",
          "name": "value",
          "type": "uint256"
        },
        {
          "indexed": false,
          "internalType": "bytes",
          "name": "data",
          "type": "bytes"
        }
      ],
      "name": "Submit",
      "type": "event"
    },
    {
      "payable": true,
      "stateMutability": "payable",
      "type": "fallback"
    },
    {
      "constant": true,
      "inputs": [
        {
          "internalType": "address",
          "name": "",
          "type": "address"
        }
      ],
      "name": "isOwner",
      "outputs": [
        {
          "internalType": "bool",
          "name": "",
          "type": "bool"
        }
      ],
      "payable": false,
      "stateMutability": "view",
      "type": "function"
    },
    {
      "constant": true,
      "inputs": [],
      "name": "numConfirmationsRequired",
      "outputs": [
        {
          "internalType": "uint256",
          "name": "",
          "type": "uint256"
        }
      ],
      "payable": false,
      "stateMutability": "view",
      "type": "function"
    },
    {
      "constant": true,
      "inputs": [
        {
          "internalType": "uint256",
          "name": "",
          "type": "uint256"
        }
      ],
      "name": "owners",
      "outputs": [
        {
          "internalType": "address",
          "name": "",
          "type": "address"
        }
      ],
      "payable": false,
      "stateMutability": "view",
      "type": "function"
    },
    {
      "constant": true,
      "inputs": [
        {
          "internalType": "uint256",
          "name": "",
          "type": "uint256"
        }
      ],
      "name": "transactions",
      "outputs": [
        {
          "internalType": "address",
          "name": "to",
          "type": "address"
        },
        {
          "internalType": "uint256",
          "name": "value",
          "type": "uint256"
        },
        {
          "internalType": "bytes",
          "name": "data",
          "type": "bytes"
        },
        {
          "internalType": "bool",
          "name": "executed",
          "type": "bool"
        },
        {
          "internalType": "uint256",
          "name": "numConfirmations",
          "type": "uint256"
        }
      ],
      "payable": false,
      "stateMutability": "view",
      "type": "function"
    },
    {
      "constant": false,
      "inputs": [],
      "name": "deposit",
      "outputs": [],
      "payable": true,
      "stateMutability": "payable",
      "type": "function"
    },
    {
      "constant": false,
      "inputs": [
        {
          "internalType": "address",
          "name": "_to",
          "type": "address"
        },
        {
          "internalType": "uint256",
          "name": "_value",
          "type": "uint256"
        },
        {
          "internalType": "bytes",
          "name": "_data",
          "type": "bytes"
        }
      ],
      "name": "submitTx",
      "outputs": [],
      "payable": false,
      "stateMutability": "nonpayable",
      "type": "function"
    },
    {
      "constant": false,
      "inputs": [
        {
          "internalType": "uint256",
          "name": "_txIndex",
          "type": "uint256"
        }
      ],
      "name": "confirmTx",
      "outputs": [],
      "payable": false,
      "stateMutability": "nonpayable",
      "type": "function"
    },
    {
      "constant": false,
      "inputs": [
        {
          "internalType": "uint256",
          "name": "_txIndex",
          "type": "uint256"
        }
      ],
      "name": "executeTx",
      "outputs": [],
      "payable": false,
      "stateMutability": "nonpayable",
      "type": "function"
    },
    {
      "constant": false,
      "inputs": [
        {
          "internalType": "uint256",
          "name": "_txIndex",
          "type": "uint256"
        }
      ],
      "name": "revokeConfirmation",
      "outputs": [],
      "payable": false,
      "stateMutability": "nonpayable",
      "type": "function"
    }
  ],
  "bytecode": "0x60806040523480156200001157600080fd5b506040516200196d3803806200196d833981810160405260408110156200003757600080fd5b81019080805160405193929190846401000000008211156200005857600080fd5b838201915060208201858111156200006f57600080fd5b82518660208202830111640100000000821117156200008d57600080fd5b8083526020830192505050908051906020019060200280838360005b83811015620000c6578082015181840152602081019050620000a9565b5050505090500160405260200180519060200190929190505050600082511162000158576040517f08c379a000000000000000000000000000000000000000000000000000000000815260040180806020018281038252600f8152602001807f6f776e657273207265717569726564000000000000000000000000000000000081525060200191505060405180910390fd5b6000811180156200016a575081518111155b620001dd576040517f08c379a000000000000000000000000000000000000000000000000000000000815260040180806020018281038252601e8152602001807f696e76616c696420726571756972656420636f6e6669726d6174696f6e73000081525060200191505060405180910390fd5b60008090505b825181101562000437576000838281518110620001fc57fe5b60200260200101519050600073ffffffffffffffffffffffffffffffffffffffff168173ffffffffffffffffffffffffffffffffffffffff161415620002aa576040517f08c379a000000000000000000000000000000000000000000000000000000000815260040180806020018281038252600d8152602001807f696e76616c6964206f776e65720000000000000000000000000000000000000081525060200191505060405180910390fd5b600160008273ffffffffffffffffffffffffffffffffffffffff1673ffffffffffffffffffffffffffffffffffffffff16815260200190815260200160002060009054906101000a900460ff16156200036b576040517f08c379a00000000000000000000000000000000000000000000000000000000081526004018080602001828103825260108152602001807f6f776e6572206e6f7420756e697175650000000000000000000000000000000081525060200191505060405180910390fd5b60018060008373ffffffffffffffffffffffffffffffffffffffff1673ffffffffffffffffffffffffffffffffffffffff16815260200190815260200160002060006101000a81548160ff02191690831515021790555060008190806001815401808255809150509060018203906000526020600020016000909192909190916101000a81548173ffffffffffffffffffffffffffffffffffffffff021916908373ffffffffffffffffffffffffffffffffffffffff16021790555050508080600101915050620001e3565b5080600281905550505061151c80620004516000396000f3fe6080604052600436106100865760003560e01c8063801be06011610059578063801be060146102385780639ace38c214610273578063bb84c5a914610373578063d0549b8514610465578063d0e30db01461049057610086565b8063025e7c27146100de57806320ea8d86146101595780632f54bf6e1461019457806354b5fe80146101fd575b3373ffffffffffffffffffffffffffffffffffffffff167f90890809c654f11d6e72a28fa60149770a0d11ec6c92319d6ceb2bb0a4ea1a153447604051808381526020018281526020019250505060405180910390a2005b3480156100ea57600080fd5b506101176004803603602081101561010157600080fd5b810190808035906020019092919050505061049a565b604051808273ffffffffffffffffffffffffffffffffffffffff1673ffffffffffffffffffffffffffffffffffffffff16815260200191505060405180910390f35b34801561016557600080fd5b506101926004803603602081101561017c57600080fd5b81019080803590602001909291905050506104d6565b005b3480156101a057600080fd5b506101e3600480360360208110156101b757600080fd5b81019080803573ffffffffffffffffffffffffffffffffffffffff169060200190929190505050610847565b604051808215151515815260200191505060405180910390f35b34801561020957600080fd5b506102366004803603602081101561022057600080fd5b8101908080359060200190929190505050610867565b005b34801561024457600080fd5b506102716004803603602081101561025b57600080fd5b8101908080359060200190929190505050610ca3565b005b34801561027f57600080fd5b506102ac6004803603602081101561029657600080fd5b8101908080359060200190929190505050611031565b604051808673ffffffffffffffffffffffffffffffffffffffff1673ffffffffffffffffffffffffffffffffffffffff1681526020018581526020018060200184151515158152602001838152602001828103825285818151815260200191508051906020019080838360005b83811015610334578082015181840152602081019050610319565b50505050905090810190601f1680156103615780820380516001836020036101000a031916815260200191505b50965050505050505060405180910390f35b34801561037f57600080fd5b506104636004803603606081101561039657600080fd5b81019080803573ffffffffffffffffffffffffffffffffffffffff16906020019092919080359060200190929190803590602001906401000000008111156103dd57600080fd5b8201836020820111156103ef57600080fd5b8035906020019184600183028401116401000000008311171561041157600080fd5b91908080601f016020809104026020016040519081016040528093929190818152602001838380828437600081840152601f19601f820116905080830192505050505050509192919290505050611139565b005b34801561047157600080fd5b5061047a6113e4565b6040518082815260200191505060405180910390f35b6104986113ea565b005b600081815481106104a757fe5b906000526020600020016000915054906101000a900473ffffffffffffffffffffffffffffffffffffffff1681565b600160003373ffffffffffffffffffffffffffffffffffffffff1673ffffffffffffffffffffffffffffffffffffffff16815260200190815260200160002060009054906101000a900460ff16610595576040517f08c379a00000000000000000000000000000000000000000000000000000000081526004018080602001828103825260098152602001807f6e6f74206f776e6572000000000000000000000000000000000000000000000081525060200191505060405180910390fd5b806003805490508110610610576040517f08c379a00000000000000000000000000000000000000000000000000000000081526004018080602001828103825260108152602001807f747820646f65736e27742065786973740000000000000000000000000000000081525060200191505060405180910390fd5b816003818154811061061e57fe5b906000526020600020906006020160030160009054906101000a900460ff16156106b0576040517f08c379a00000000000000000000000000000000000000000000000000000000081526004018080602001828103825260138152602001807f747820616c72656164792065786563757465640000000000000000000000000081525060200191505060405180910390fd5b6000600384815481106106bf57fe5b906000526020600020906006020190508060040160003373ffffffffffffffffffffffffffffffffffffffff1673ffffffffffffffffffffffffffffffffffffffff16815260200190815260200160002060009054906101000a900460ff16610790576040517f08c379a00000000000000000000000000000000000000000000000000000000081526004018080602001828103825260108152602001807f7478206e6f7420636f6e6669726d65640000000000000000000000000000000081525060200191505060405180910390fd5b60008160040160003373ffffffffffffffffffffffffffffffffffffffff1673ffffffffffffffffffffffffffffffffffffffff16815260200190815260200160002060006101000a81548160ff02191690831515021790555060018160050160008282540392505081905550833373ffffffffffffffffffffffffffffffffffffffff167fec9ab91322523c899ede7830ec9bfc992b5981cdcc27b91162fb23de5791117b60405160405180910390a350505050565b60016020528060005260406000206000915054906101000a900460ff1681565b600160003373ffffffffffffffffffffffffffffffffffffffff1673ffffffffffffffffffffffffffffffffffffffff16815260200190815260200160002060009054906101000a900460ff16610926576040517f08c379a00000000000000000000000000000000000000000000000000000000081526004018080602001828103825260098152602001807f6e6f74206f776e6572000000000000000000000000000000000000000000000081525060200191505060405180910390fd5b8060038054905081106109a1576040517f08c379a00000000000000000000000000000000000000000000000000000000081526004018080602001828103825260108152602001807f747820646f65736e27742065786973740000000000000000000000000000000081525060200191505060405180910390fd5b81600381815481106109af57fe5b906000526020600020906006020160030160009054906101000a900460ff1615610a41576040517f08c379a00000000000000000000000000000000000000000000000000000000081526004018080602001828103825260138152602001807f747820616c72656164792065786563757465640000000000000000000000000081525060200191505060405180910390fd5b600060038481548110610a5057fe5b9060005260206000209060060201905060025481600501541015610adc576040517f08c379a00000000000000000000000000000000000000000000000000000000081526004018080602001828103825260108152602001807f63616e277420657865637574652074780000000000000000000000000000000081525060200191505060405180910390fd5b60018160030160006101000a81548160ff02191690831515021790555060008160000160009054906101000a900473ffffffffffffffffffffffffffffffffffffffff1673ffffffffffffffffffffffffffffffffffffffff168260010154836002016040518082805460018160011615610100020316600290048015610b9a5780601f10610b78576101008083540402835291820191610b9a565b820191906000526020600020905b815481529060010190602001808311610b86575b505091505060006040518083038185875af1925050503d8060008114610bdc576040519150601f19603f3d011682016040523d82523d6000602084013e610be1565b606091505b5050905080610c58576040517f08c379a00000000000000000000000000000000000000000000000000000000081526004018080602001828103825260098152602001807f7478206661696c6564000000000000000000000000000000000000000000000081525060200191505060405180910390fd5b843373ffffffffffffffffffffffffffffffffffffffff167f892cd8f5b436bd5fb7dac1f11aafb73345d892ba3e9fe09cd94d95ba84928e7360405160405180910390a35050505050565b600160003373ffffffffffffffffffffffffffffffffffffffff1673ffffffffffffffffffffffffffffffffffffffff16815260200190815260200160002060009054906101000a900460ff16610d62576040517f08c379a00000000000000000000000000000000000000000000000000000000081526004018080602001828103825260098152602001807f6e6f74206f776e6572000000000000000000000000000000000000000000000081525060200191505060405180910390fd5b806003805490508110610ddd576040517f08c379a00000000000000000000000000000000000000000000000000000000081526004018080602001828103825260108152602001807f747820646f65736e27742065786973740000000000000000000000000000000081525060200191505060405180910390fd5b8160038181548110610deb57fe5b906000526020600020906006020160030160009054906101000a900460ff1615610e7d576040517f08c379a00000000000000000000000000000000000000000000000000000000081526004018080602001828103825260138152602001807f747820616c72656164792065786563757465640000000000000000000000000081525060200191505060405180910390fd5b8260038181548110610e8b57fe5b906000526020600020906006020160040160003373ffffffffffffffffffffffffffffffffffffffff1673ffffffffffffffffffffffffffffffffffffffff16815260200190815260200160002060009054906101000a900460ff1615610f5a576040517f08c379a00000000000000000000000000000000000000000000000000000000081526004018080602001828103825260148152602001807f747820616c726561647920636f6e6669726d656400000000000000000000000081525060200191505060405180910390fd5b600060038581548110610f6957fe5b9060005260206000209060060201905060018160040160003373ffffffffffffffffffffffffffffffffffffffff1673ffffffffffffffffffffffffffffffffffffffff16815260200190815260200160002060006101000a81548160ff02191690831515021790555060018160050160008282540192505081905550843373ffffffffffffffffffffffffffffffffffffffff167fbde73c39e691e6143456e01935275fd9f654dacca25911f03ab0d587644377eb60405160405180910390a35050505050565b6003818154811061103e57fe5b90600052602060002090600602016000915090508060000160009054906101000a900473ffffffffffffffffffffffffffffffffffffffff1690806001015490806002018054600181600116156101000203166002900480601f0160208091040260200160405190810160405280929190818152602001828054600181600116156101000203166002900480156111165780601f106110eb57610100808354040283529160200191611116565b820191906000526020600020905b8154815290600101906020018083116110f957829003601f168201915b5050505050908060030160009054906101000a900460ff16908060050154905085565b600160003373ffffffffffffffffffffffffffffffffffffffff1673ffffffffffffffffffffffffffffffffffffffff16815260200190815260200160002060009054906101000a900460ff166111f8576040517f08c379a00000000000000000000000000000000000000000000000000000000081526004018080602001828103825260098152602001807f6e6f74206f776e6572000000000000000000000000000000000000000000000081525060200191505060405180910390fd5b6000600380549050905060036040518060a001604052808673ffffffffffffffffffffffffffffffffffffffff16815260200185815260200184815260200160001515815260200160008152509080600181540180825580915050906001820390600052602060002090600602016000909192909190915060008201518160000160006101000a81548173ffffffffffffffffffffffffffffffffffffffff021916908373ffffffffffffffffffffffffffffffffffffffff1602179055506020820151816001015560408201518160020190805190602001906112dd929190611442565b5060608201518160030160006101000a81548160ff021916908315150217905550608082015181600501555050508373ffffffffffffffffffffffffffffffffffffffff16813373ffffffffffffffffffffffffffffffffffffffff167fae88b418f2b5e7c7e4a839d4244a762f0552c731cb27e637651304317491b10786866040518083815260200180602001828103825283818151815260200191508051906020019080838360005b838110156113a3578082015181840152602081019050611388565b50505050905090810190601f1680156113d05780820380516001836020036101000a031916815260200191505b50935050505060405180910390a450505050565b60025481565b3373ffffffffffffffffffffffffffffffffffffffff167f90890809c654f11d6e72a28fa60149770a0d11ec6c92319d6ceb2bb0a4ea1a153447604051808381526020018281526020019250505060405180910390a2565b828054600181600116156101000203166002900490600052602060002090601f016020900481019282601f1061148357805160ff19168380011785556114b1565b828001600101855582156114b1579182015b828111156114b0578251825591602001919060010190611495565b5b5090506114be91906114c2565b5090565b6114e491905b808211156114e05760008160009055506001016114c8565b5090565b9056fea265627a7a723158204fbda1cc66b5ebaeb29a2625753561b9a734d929e07537d318ba9553f1198a7864736f6c63430005100032",
  "source": "// SPDX-License-Identifier: MIT\r\npragma solidity ^0.5.16;\r\n\r\ncontract MultiSigWallet {\r\n    \r\n    //Events\r\n    event Submit(address indexed owner, uint indexed txIndex, address indexed to, uint value, bytes data);\r\n    event Confirm(address indexed owner, uint indexed txIndex);\r\n    event Execute(address indexed owner, uint indexed txIndex);\r\n    event Revoke(address indexed owner, uint indexed txIndex);\r\n    event Deposit(address indexed to, uint amount, uint balance);\r\n    \r\n    //Storage\r\n    \r\n    address[] public owners;\r\n    mapping(address=>bool) public isOwner;\r\n    uint public numConfirmationsRequired;\r\n    \r\n    \r\n    struct Transaction{\r\n        address to;\r\n        uint value;\r\n        bytes data;\r\n        bool executed;\r\n        mapping(address=>bool) isConfirmed;\r\n        uint numConfirmations;\r\n    }\r\n    Transaction[] public transactions;\r\n    \r\n    //Modifiers\r\n    \r\n    modifier onlyowner(){\r\n        require(isOwner[msg.sender],\"not owner\");\r\n        _;\r\n\r\n    } \r\n    modifier txExists(uint _txIndex){\r\n        require(_txIndex < transactions.length,\"tx doesn't exist\");\r\n        _;\r\n    }\r\n    modifier notExecuted(uint _txIndex){\r\n        require(!transactions[_txIndex].executed,\"tx already executed\");\r\n        _;\r\n    }\r\n    modifier notConfirmed(uint _txIndex){\r\n        require(!transactions[_txIndex].isConfirmed[msg.sender],\"tx already confirmed\");\r\n        _;\r\n    }\r\n    \r\n    \r\n    //Public functions\r\n    constructor(address[] memory _owners, uint _numConfirmationsRequired) public{\r\n        require(_owners.length > 0,\"owners required\");\r\n        require(_numConfirmationsRequired > 0 && _numConfirmationsRequired <= _owners.length,\"invalid required confirmations\");\r\n        \r\n        for(uint i=0; i<_owners.length; i++){\r\n            address owner=_owners[i];\r\n            require(owner!=address(0),\"invalid owner\");\r\n            require(!isOwner[owner],\"owner not unique\");\r\n            isOwner[owner]=true;\r\n            owners.push(owner);\r\n        }\r\n        numConfirmationsRequired=_numConfirmationsRequired;\r\n    }\r\n    function() payable external{\r\n        emit Deposit(msg.sender,msg.value,address(this).balance);\r\n    }\r\n    //helper function to deposit in remix!\r\n    function deposit() payable external{\r\n        emit Deposit(msg.sender,msg.value,address(this).balance);\r\n    }\r\n    \r\n    function submitTx(address _to, uint _value, bytes memory _data) public onlyowner {\r\n        uint txIndex= transactions.length;\r\n        transactions.push(Transaction({\r\n            to: _to,\r\n            value:_value,\r\n            data:_data,\r\n            executed:false,\r\n            numConfirmations:0\r\n            \r\n        }));\r\n        emit Submit(msg.sender,txIndex,_to,_value,_data);\r\n        \r\n    }\r\n    function confirmTx(uint _txIndex)\r\n        public \r\n        onlyowner \r\n        txExists(_txIndex) \r\n        notExecuted(_txIndex)\r\n        notConfirmed(_txIndex)\r\n        {   \r\n            Transaction storage transaction=transactions[_txIndex];\r\n            transaction.isConfirmed[msg.sender]=true;\r\n            transaction.numConfirmations+=1;\r\n            \r\n            emit Confirm(msg.sender,_txIndex);\r\n    }\r\n    function executeTx(uint _txIndex)\r\n        public\r\n        onlyowner\r\n        txExists(_txIndex)\r\n        notExecuted(_txIndex)\r\n        {\r\n            Transaction storage transaction=transactions[_txIndex];\r\n            require(transaction.numConfirmations>=numConfirmationsRequired,\"can't execute tx\");\r\n            transaction.executed=true;\r\n            (bool success,)=transaction.to.call.value(transaction.value)(transaction.data);\r\n            require(success,\"tx failed\");\r\n            \r\n            emit Execute(msg.sender,_txIndex);\r\n    }\r\n    function revokeConfirmation(uint _txIndex)\r\n        public\r\n        onlyowner \r\n        txExists(_txIndex) \r\n        notExecuted(_txIndex)\r\n        {\r\n            Transaction storage transaction=transactions[_txIndex];\r\n            require(transaction.isConfirmed[msg.sender], \"tx not confirmed\");\r\n            transaction.isConfirmed[msg.sender] = false;\r\n            transaction.numConfirmations -= 1;\r\n        \r\n            emit Revoke(msg.sender, _txIndex);\r\n    }\r\n\r\n}\r\n",
  "sourcePath": "C:/Users/Hp/Multisig_Wallet/contracts/MultisigWallet.sol",
  "compiler": {
    "name": "solc",
    "version": "0.5.16+commit.9c3226ce.Emscripten.clang"
  },
  "schemaVersion": "3.2.2",
  "updatedAt": "2021-09-07T18:41:55.265Z",
  "devdoc": {
    "methods": {}
  },
  "userdoc": {
    "methods": {}
  }
}